:1000000007C1000033C1000031C100002FC1000052
:100010002DC100002BC1000029C1000027C1000034
:1000200025C1000023C1000021C100001FC1000044
:100030001DC100001BC1000019C1000017C1000054
:1000400015C1000013C1000011C100000FC1000064
:100050000DC100000BC1000009C10000D5C30000A4
:1000600005C100009BC3000070C30000FFC000007A
:10007000FDC00000FBC00000F9C00000F7C0000098
:10008000F5C00000F3C00000F1C00000EFC00000A8
:10009000EDC00000EBC00000E9C00000E7C00000B8
:1000A000E5C00000E3C00000E1C00000DFC00000C8
:1000B000DDC00000DBC00000D9C00000D7C00000D8
:1000C000D5C00000D3C00000D1C00000CFC00000E8
:1000D000CDC00000CBC00000C9C00000C7C00000F8
:1000E000C5C0000061016401530157015B019B0120
:1000F00068016C01720176017A0180018401880136
:100100009B018E019201960100002100240027002E
:100110002A002D0030003300010100000401070116
:100120000A0100002200250028002B002E003100CB
:10013000340002010000050108010B010505050559
:10014000070508080808020202020A0A080804044F
:10015000040401010101010101010303030303037D
:100160000303040707070C0C0C0C0C0C0C0C02020C
:10017000020206060606060606060B0B0B0B0B0B09
:100180000B0B010210202008081020401020408096
:10019000020102010804020101020408102040804B
:1001A00080402010080402018004020180402010D9
:1001B0000804020108040201010204081020408022
:1001C000010204081020408000000A0B02090C0DF7
:1001D0000E080703040100000000000000000000FA
:1001E000000000000000000000000000000000000F
:1001F00000000000121110000000000000000000CC
:1002000000000000000000000000000000004E049C
:1002100011241FBECFEFD1E2DEBFCDBF00E00CBF87
:1002200023E0A8E3B2E001C01D92A832B207E1F7D3
:1002300012E0A0E0B2E0E6E8FDE000E00BBF02C0A3
:1002400007900D92A833B107D9F711E0C8E0D1E0CB
:1002500000E005C021970109802FFE0186D5C73037
:10026000D10780E00807B1F758D38BC5C9CE382F26
:10027000E5EDF1E04491EFE8F1E02491E9E4F1E00B
:100280009491992309F46BC0442309F454C050E0BD
:10029000FA013197E231F10508F04DC08827EE5898
:1002A000FF4F8F4F62C5809180008F7707C080918C
:1002B00080008F7D03C080918000877F80938000C5
:1002C0003AC084B58F7702C084B58F7D84BD33C0BA
:1002D0008091B0008F7703C08091B0008F7D8093B4
:1002E000B00029C0809190008F7707C08091900066
:1002F0008F7D03C080919000877F809390001BC00A
:100300008091A0008F7707C08091A0008F7D03C0EF
:100310008091A000877F8093A0000DC08091200174
:100320008F7707C0809120018F7D03C080912001CD
:10033000877F80932001E92FF0E0EE0FFF1FEE5D35
:10034000FE4FA591B4919FB7F894311104C08C91E0
:100350002095282302C0EC912E2B2C939FBF08954B
:10036000CF92DF92EF92FF920F931F93CF93DF9381
:100370006C017A018B01C0E0D0E0CE15DF0581F081
:10038000D8016D918D01D601ED91FC910190F08124
:10039000E02DC6011995892B11F02196EECF7E0133
:1003A000C701DF91CF911F910F91FF90EF90DF90E8
:1003B000CF900895089580E090E00895FC01538D5A
:1003C000448D252F30E0842F90E0821B930B54172F
:1003D00010F0CF96089501970895FC01918D828DBC
:1003E000981761F0828DDF01A80FB11D5D968C9189
:1003F000928D9F5F9F73928F90E008958FEF9FEF94
:100400000895FC01918D828D981731F0828DE80F4F
:10041000F11D858D90E008958FEF9FEF0895FC0109
:10042000918D228D892F90E0805C9F4F821B9109D6
:100430008F739927089585E492E0F1DF21E0892BFD
:1004400009F420E0822F0895FC01848DDF01A80FBC
:10045000B11DA35ABF4F2C91848D90E001968F73EC
:100460009927848FA689B7892C93A089B1898C910B
:10047000837080648C93938D848D981306C002885A
:10048000F389E02D80818F7D80830895EF92FF9224
:100490000F931F93CF93DF93EC0181E0888F9B8DA7
:1004A0008C8D981305C0E889F989808185FD25C068
:1004B000F62E0B8D10E00F5F1F4F0F731127E02EEC
:1004C0008C8DE8120BC00FB607FCFACFE889F989CA
:1004D000808185FFF5CFCE01B7DFF2CF8B8DFE0196
:1004E000E80FF11DE35AFF4FF0829FB7F8940B8F8E
:1004F000EA89FB89808180620AC09FB7F894EE89FF
:10050000FF896083E889F9898081837080648083B2
:100510009FBF81E090E0DF91CF911F910F91FF90FD
:10052000EF900895CF93DF93EC01888D8823C1F07D
:10053000EA89FB89808185FD05C0A889B9898C91EC
:1005400086FD0EC00FB607FCF5CF808185FFF2CF88
:10055000A889B9898C9185FFEDCFCE0175DFE8CFF1
:10056000DF91CF91089580E090E0892B19F063DF4F
:10057000811125C080E090E0892B41F080E090E07F
:10058000892B21F00E94000081111CC080E090E0C6
:10059000892B41F080E090E0892B21F00E9400003F
:1005A000811113C080E090E0892BA1F080E090E001
:1005B000892B81F00E94000081110AC008950E94D9
:1005C0000000D8CF0E940000E1CF0E940000EACFD7
:1005D0000C94000008953FB7F89480913D029091EB
:1005E0003E02A0913F02B091400226B5A89B05C0F3
:1005F0002F3F19F00196A11DB11D3FBFBA2FA92FA2
:10060000982F8827820F911DA11DB11DBC01CD011E
:1006100042E0660F771F881F991F4A95D1F708950A
:100620008F929F92AF92BF92CF92DF92EF92FF9202
:100630006B017C01D0DF4B015C01C114D104E104EA
:10064000F104E9F0C8DFDC01CB0188199909AA0996
:10065000BB09883E9340A105B10578F321E0C21A99
:10066000D108E108F10888EE880E83E0981EA11CED
:10067000B11CC114D104E104F10421F7DECFFF90D5
:10068000EF90DF90CF90BF90AF909F908F900895A4
:100690002FB7F8946091390270913A0280913B0231
:1006A00090913C022FBF0895009761F0FC010190EA
:1006B0000020E9F73197AF01481B590BBC0185E4D5
:1006C00092E04ECE80E090E008958F929F92AF929C
:1006D000BF920F931F93CF93DF93CDB7DEB7A19750
:1006E0000FB6F894DEBF0FBECDBF19A2423008F49A
:1006F0004AE08E010F5D1F4F842E912CA12CB12C4E
:10070000A501940110D3E62FB901CA0101501109C6
:10071000EA3014F4E05D01C0E95CD801EC93232BCE
:10072000242B252B69F7C801BFDFA1960FB6F894DB
:10073000DEBF0FBECDBFDF91CF911F910F91BF9054
:10074000AF909F908F90089518D31F920F920FB67D
:100750000F9211240BB60F922F933F934F935F93F9
:100760006F937F938F939F93AF93BF93EF93FF9379
:1007700085E492E069DEFF91EF91BF91AF919F9187
:100780008F917F916F915F914F913F912F910F903A
:100790000BBE0F900FBE0F901F9018951F920F92D7
:1007A0000FB60F9211240BB60F922F938F939F9336
:1007B000EF93FF93E0915502F09156028081E09112
:1007C0005B02F0915C0282FD12C0908180915E021A
:1007D0008F5F8F7320915F02821751F0E0915E026C
:1007E000F0E0EB5BFD4F958F80935E0201C080814E
:1007F000FF91EF919F918F912F910F900BBE0F90D2
:100800000FBE0F901F9018951F920F920FB60F9268
:1008100011242F933F938F939F93AF93BF93809116
:10082000390290913A02A0913B02B0913C02309182
:10083000380223E0230F2D3720F40196A11DB11DAE
:1008400005C026E8230F0296A11DB11D2093380292
:100850008093390290933A02A0933B02B0933C02FA
:1008600080913D0290913E02A0913F02B0914002E2
:100870000196A11DB11D80933D0290933E02A0936D
:100880003F02B0934002BF91AF919F918F913F91F2
:100890002F910F900FBE0F901F901895E5E4F2E096
:1008A0001382128288EE93E0A0E0B0E08483958307
:1008B000A683B78384E092E09183808385EC90E007
:1008C0009587848784EC90E09787868780EC90E01A
:1008D000918B808B81EC90E0938B828B82EC90E00B
:1008E000958B848B86EC90E0978B868B118E128E85
:1008F000138E148EE2EEF2E01682178210861186B5
:10090000128613861486158616861786108A118A13
:10091000128A138A148A158A0895789484B582609D
:1009200084BD84B5816084BD85B5826085BD85B593
:10093000816085BD80916E00816080936E00109211
:10094000810080918100826080938100809181008C
:10095000816080938100809180008160809380001D
:100960008091B10084608093B1008091B00081607B
:100970008093B0008091910082608093910080917B
:1009800091008160809391008091900081608093BC
:1009900090008091A10082608093A1008091A100CD
:1009A00081608093A1008091A00081608093A0006D
:1009B00080912101826080932101809121018160D9
:1009C000809321018091200181608093200180919A
:1009D0007A00846080937A0080917A0082608093AC
:1009E0007A0080917A00816080937A0080917A0009
:1009F000806880937A001092C100109224031092B4
:100A0000250310922603109227031092E4021092FD
:100A1000E5021092E6021092E7023ADE6B017C01D9
:100A20004B015C0128EB820E2BE0921EA11CB11C35
:100A30002FDE6C157D058E059F0528F0861697061E
:100A4000A806B906A8F760ED77E080E090E0E8DD61
:100A5000E0915502F091560282E08083E0915102CC
:100A6000F09152021082E0915302F091540280E121
:100A7000808310925D02E0915902F0915A0286E063
:100A80008083E0915702F0915802808180618083D9
:100A9000E0915702F0915802808188608083E09154
:100AA0005702F0915802808180688083E09157025C
:100AB000F091580280818F7D8083EADD6093E402AB
:100AC0007093E5028093E6029093E70282E192E060
:100AD000EBDDDEDD6B017C014B015C013AE0830E56
:100AE000911CA11CB11CD4DD6C157D058E059F05E4
:100AF00028F086169706A806B906A8F781E0809325
:100B0000F802EFE8F1E02491E9E4F1E08491882330
:100B100099F090E0880F991FFC01E85FFE4FA591C6
:100B2000B491FC01EE5DFE4F859194918FB7F894DE
:100B3000EC91E22BEC938FBF84EF882E9924939451
:100B4000A12CB12CA5DD672B682B692B39F4A0DD16
:100B5000623071058105910508F4CFC099DDC09020
:100B60004102D0904202E0904302F09044026C15A2
:100B70007D058E059F0540F460934102709342020B
:100B80008093430290934402C0904102D09042026D
:100B9000E0904302F09044029B01AC012C193D0906
:100BA0004E095F0969017A013AEFC316D104E104E5
:100BB000F10408F4A2C06093410270934202809352
:100BC0004302909344028092F0029092F102A0922C
:100BD000F202B092F3021092F4021092F502109217
:100BE000F6021092F7028091E8029091E902A0913A
:100BF000EA02B091EB028093EC029093ED02A09395
:100C0000EE02B093EF0244DD6093E8027093E902D4
:100C10008093EA029093EB023BDD6093E4027093D1
:100C2000E5028093E6029093E70232DD6B017C01DE
:100C300084E292E039DD4AE061E070E080E090E03B
:100C400044DD8BE292E030DD4AE0C701B6013DDDD4
:100C50008DE292E029DD8091E8029091E902A09175
:100C6000EA02B091EB02A7019601281B390B4A0B4F
:100C70005B0BCA01B9014AE028DD8DE292E014DD88
:100C80008091E8029091E902A091EA02B091EB0212
:100C9000C090EC02D090ED02E090EE02F090EF02F6
:100CA000BC01CD016C197D098E099F094AE00DDD5B
:100CB0008FE292E0F9DCECDC4AE007DD81E392E0D0
:100CC000F3DC81E292E0F0DCE3DC6B017C012B01E0
:100CD0003C0132E0430E511C611C711CD9DC6C15C7
:100CE0007D058E059F05C8F4D3DC6093E802709300
:100CF000E9028093EA029093EB0281E0B8DA6CE2B9
:100D000071E080E090E08CDC80E0B1DA6CE271E0D0
:100D100080E090E085DC27DC15CF46165706680694
:100D20007906E0F6E1CFA1E21A2EAA1BBB1BFD015A
:100D30000DC0AA1FBB1FEE1FFF1FA217B307E407BA
:100D4000F50720F0A21BB30BE40BF50B661F771F12
:100D5000881F991F1A9469F76095709580959095F2
:100D60009B01AC01BD01CF010895EE0FFF1F881F4D
:100D70008BBF0790F691E02D199481E090E0F894F4
:060D800000C0F894FFCF53
:100D8600000000004602B001DE0192020F02ED01F2
:100D96000102564D4450565F317C315F564D4450EA
:100DA600560D0A00564D4450455F003A323A007CD3
:080DB600005F564D445045005A
:00000001FF
